:020000040000FA
:1000000010EF00F00000000064EF00F000000000BE
:1000100000000000000000000000000000000000E0
:10002000E00EF26E440ED56EC00ED66EF294F00E57
:10003000936E006A0F0E116E0F0E126E0A0E136E83
:100040000B0E146E020E166E010E156E926A946AF5
:10005000956A806A82688368016A026A46EC00F0E9
:1000600071EC00F01262FAD7D58E4EEC00F002501F
:1000700001E0FBD701500062F8D7D59E80928080C6
:1000800071EC00F01462FCD78090E8D771EC00F0BE
:1000900013641200026EC4EC00F0120016C080FF60
:1000A00071EC00F0146204D0D59E80928090F8D755
:1000B000D5AED58E136207D000C002F000C001F0AB
:1000C000C4EC00F012001200C00ED66EF294015083
:1000D00002E0010603D0090E016E0206C4EC00F036
:1000E00011000F0E816E8150116202D0800E12003D
:1000F000000E8116818081A802D0010E120081AA13
:1001000002D0040E120081AC02D0070E120081AEA4
:1001100002D00A0E1200000E8116818281A802D040
:10012000020E120081AA02D0050E120081AC02D08C
:10013000080E120081AE02D0000E1200000E8116D1
:10014000818481A802D0030E120081AA02D0060E7B
:10015000120081AC02D0090E120081AE02D00B0E4B
:100160001200000E8116818681A802D00C0E1200AA
:1001700081AA02D00D0E120081AC02D00E0E120028
:1001800081AE01D00F0E12000150CFEC00F0F5CF80
:1001900082FF0250CFEC00F0F5CF83FF1200106E0B
:1001A000000EF86E010EF76EB40EF66E1050F626C5
:0F01B00008001200C0F9A4B0999282F880900064
:020000040030CA
:0E00000000220E00000180000FC00FE00F4034
:00000001FF
